{
  "_format": "hh-sol-artifact-1",
  "contractName": "DevConnect",
  "sourceName": "contracts/DevConnect.sol",
  "abi": [
    {
      "anonymous": false,
      "inputs": [
        {
          "indexed": true,
          "internalType": "address",
          "name": "developer",
          "type": "address"
        },
        {
          "indexed": true,
          "internalType": "address",
          "name": "client",
          "type": "address"
        },
        {
          "indexed": false,
          "internalType": "uint256",
          "name": "timestamp",
          "type": "uint256"
        }
      ],
      "name": "CallBooked",
      "type": "event"
    },
    {
      "anonymous": false,
      "inputs": [
        {
          "indexed": true,
          "internalType": "address",
          "name": "developer",
          "type": "address"
        },
        {
          "indexed": true,
          "internalType": "address",
          "name": "client",
          "type": "address"
        },
        {
          "indexed": false,
          "internalType": "uint256",
          "name": "duration",
          "type": "uint256"
        }
      ],
      "name": "CallCompleted",
      "type": "event"
    },
    {
      "anonymous": false,
      "inputs": [
        {
          "indexed": true,
          "internalType": "address",
          "name": "developer",
          "type": "address"
        },
        {
          "indexed": false,
          "internalType": "string",
          "name": "name",
          "type": "string"
        },
        {
          "indexed": false,
          "internalType": "uint256",
          "name": "hourlyRate",
          "type": "uint256"
        }
      ],
      "name": "DeveloperRegistered",
      "type": "event"
    },
    {
      "inputs": [
        {
          "internalType": "address",
          "name": "_developer",
          "type": "address"
        }
      ],
      "name": "bookCall",
      "outputs": [],
      "stateMutability": "payable",
      "type": "function"
    },
    {
      "inputs": [
        {
          "internalType": "uint256",
          "name": "_callId",
          "type": "uint256"
        },
        {
          "internalType": "uint256",
          "name": "_duration",
          "type": "uint256"
        }
      ],
      "name": "completeCall",
      "outputs": [],
      "stateMutability": "nonpayable",
      "type": "function"
    },
    {
      "inputs": [
        {
          "internalType": "address",
          "name": "",
          "type": "address"
        }
      ],
      "name": "developers",
      "outputs": [
        {
          "internalType": "string",
          "name": "name",
          "type": "string"
        },
        {
          "internalType": "string",
          "name": "expertise",
          "type": "string"
        },
        {
          "internalType": "uint256",
          "name": "hourlyRate",
          "type": "uint256"
        },
        {
          "internalType": "bool",
          "name": "isActive",
          "type": "bool"
        },
        {
          "internalType": "uint256",
          "name": "totalCalls",
          "type": "uint256"
        }
      ],
      "stateMutability": "view",
      "type": "function"
    },
    {
      "inputs": [
        {
          "internalType": "address",
          "name": "_developer",
          "type": "address"
        }
      ],
      "name": "getDeveloperDetails",
      "outputs": [
        {
          "internalType": "string",
          "name": "name",
          "type": "string"
        },
        {
          "internalType": "string",
          "name": "expertise",
          "type": "string"
        },
        {
          "internalType": "uint256",
          "name": "hourlyRate",
          "type": "uint256"
        },
        {
          "internalType": "bool",
          "name": "isActive",
          "type": "bool"
        },
        {
          "internalType": "uint256",
          "name": "totalCalls",
          "type": "uint256"
        }
      ],
      "stateMutability": "view",
      "type": "function"
    },
    {
      "inputs": [
        {
          "internalType": "address",
          "name": "",
          "type": "address"
        }
      ],
      "name": "isDeveloper",
      "outputs": [
        {
          "internalType": "bool",
          "name": "",
          "type": "bool"
        }
      ],
      "stateMutability": "view",
      "type": "function"
    },
    {
      "inputs": [],
      "name": "platformFee",
      "outputs": [
        {
          "internalType": "uint256",
          "name": "",
          "type": "uint256"
        }
      ],
      "stateMutability": "view",
      "type": "function"
    },
    {
      "inputs": [
        {
          "internalType": "string",
          "name": "_name",
          "type": "string"
        },
        {
          "internalType": "string",
          "name": "_expertise",
          "type": "string"
        },
        {
          "internalType": "uint256",
          "name": "_hourlyRate",
          "type": "uint256"
        }
      ],
      "name": "registerDeveloper",
      "outputs": [],
      "stateMutability": "nonpayable",
      "type": "function"
    },
    {
      "inputs": [],
      "name": "toggleAvailability",
      "outputs": [],
      "stateMutability": "nonpayable",
      "type": "function"
    },
    {
      "inputs": [
        {
          "internalType": "uint256",
          "name": "_newRate",
          "type": "uint256"
        }
      ],
      "name": "updateHourlyRate",
      "outputs": [],
      "stateMutability": "nonpayable",
      "type": "function"
    }
  ],
  "bytecode": "0x6080604052600560025534801561001557600080fd5b50611b1a806100256000396000f3fe6080604052600436106100865760003560e01c80638cf1e602116100595780638cf1e6021461014b5780638f5a206e14610167578063a6a576d814610190578063cac92ed0146101b9578063f262d6d0146101e257610086565b806326232a2e1461008b5780635eca4a70146100b657806361fd5c20146100f357806370a2b84a14610134575b600080fd5b34801561009757600080fd5b506100a0610223565b6040516100ad9190610f23565b60405180910390f35b3480156100c257600080fd5b506100dd60048036038101906100d89190610fb0565b610229565b6040516100ea9190610ff8565b60405180910390f35b3480156100ff57600080fd5b5061011a60048036038101906101159190610fb0565b610249565b60405161012b9594939291906110a3565b60405180910390f35b34801561014057600080fd5b5061014961039c565b005b61016560048036038101906101609190610fb0565b6104d2565b005b34801561017357600080fd5b5061018e60048036038101906101899190611130565b610817565b005b34801561019c57600080fd5b506101b760048036038101906101b2919061115d565b61092f565b005b3480156101c557600080fd5b506101e060048036038101906101db91906112d2565b610b68565b005b3480156101ee57600080fd5b5061020960048036038101906102049190610fb0565b610d71565b60405161021a9594939291906110a3565b60405180910390f35b60025481565b60016020528060005260406000206000915054906101000a900460ff1681565b600060205280600052604060002060009150905080600001805461026c9061138c565b80601f01602080910402602001604051908101604052809291908181526020018280546102989061138c565b80156102e55780601f106102ba576101008083540402835291602001916102e5565b820191906000526020600020905b8154815290600101906020018083116102c857829003601f168201915b5050505050908060010180546102fa9061138c565b80601f01602080910402602001604051908101604052809291908181526020018280546103269061138c565b80156103735780601f1061034857610100808354040283529160200191610373565b820191906000526020600020905b81548152906001019060200180831161035657829003601f168201915b5050505050908060020154908060030160009054906101000a900460ff16908060040154905085565b600160003373ffffffffffffffffffffffffffffffffffffffff1673ffffffffffffffffffffffffffffffffffffffff16815260200190815260200160002060009054906101000a900460ff16610428576040517f08c379a000000000000000000000000000000000000000000000000000000000815260040161041f90611409565b60405180910390fd5b6000803373ffffffffffffffffffffffffffffffffffffffff1673ffffffffffffffffffffffffffffffffffffffff16815260200190815260200160002060030160009054906101000a900460ff16156000803373ffffffffffffffffffffffffffffffffffffffff1673ffffffffffffffffffffffffffffffffffffffff16815260200190815260200160002060030160006101000a81548160ff021916908315150217905550565b600160008273ffffffffffffffffffffffffffffffffffffffff1673ffffffffffffffffffffffffffffffffffffffff16815260200190815260200160002060009054906101000a900460ff1661055e576040517f08c379a000000000000000000000000000000000000000000000000000000000815260040161055590611475565b60405180910390fd5b6000808273ffffffffffffffffffffffffffffffffffffffff1673ffffffffffffffffffffffffffffffffffffffff16815260200190815260200160002060030160009054906101000a900460ff166105ec576040517f08c379a00000000000000000000000000000000000000000000000000000000081526004016105e3906114e1565b60405180910390fd5b60008060008373ffffffffffffffffffffffffffffffffffffffff1673ffffffffffffffffffffffffffffffffffffffff16815260200190815260200160002090506000816004015490506000603c601e846002015461064c9190611530565b61065691906115a1565b90508034101561069b576040517f08c379a00000000000000000000000000000000000000000000000000000000081526004016106929061161e565b60405180910390fd5b6040518060a001604052803373ffffffffffffffffffffffffffffffffffffffff168152602001428152602001600081526020016000151581526020016001151581525083600501600084815260200190815260200160002060008201518160000160006101000a81548173ffffffffffffffffffffffffffffffffffffffff021916908373ffffffffffffffffffffffffffffffffffffffff160217905550602082015181600101556040820151816002015560608201518160030160006101000a81548160ff02191690831515021790555060808201518160030160016101000a81548160ff0219169083151502179055509050508260040160008154809291906107a79061163e565b91905055503373ffffffffffffffffffffffffffffffffffffffff168473ffffffffffffffffffffffffffffffffffffffff167f1590c9ce7355b2da0a6362613f082cb96fd92f7c0098dee62f2f02eeea73b711426040516108099190610f23565b60405180910390a350505050565b600160003373ffffffffffffffffffffffffffffffffffffffff1673ffffffffffffffffffffffffffffffffffffffff16815260200190815260200160002060009054906101000a900460ff166108a3576040517f08c379a000000000000000000000000000000000000000000000000000000000815260040161089a90611409565b60405180910390fd5b600081116108e6576040517f08c379a00000000000000000000000000000000000000000000000000000000081526004016108dd906116d2565b60405180910390fd5b806000803373ffffffffffffffffffffffffffffffffffffffff1673ffffffffffffffffffffffffffffffffffffffff1681526020019081526020016000206002018190555050565b600160003373ffffffffffffffffffffffffffffffffffffffff1673ffffffffffffffffffffffffffffffffffffffff16815260200190815260200160002060009054906101000a900460ff166109bb576040517f08c379a00000000000000000000000000000000000000000000000000000000081526004016109b290611409565b60405180910390fd5b60008060003373ffffffffffffffffffffffffffffffffffffffff1673ffffffffffffffffffffffffffffffffffffffff168152602001908152602001600020600501600084815260200190815260200160002090508060030160009054906101000a900460ff1615610a63576040517f08c379a0000000000000000000000000000000000000000000000000000000008152600401610a5a9061173e565b60405180910390fd5b8060030160019054906101000a900460ff16610ab4576040517f08c379a0000000000000000000000000000000000000000000000000000000008152600401610aab906117aa565b60405180910390fd5b60018160030160006101000a81548160ff0219169083151502179055508181600201819055508060000160009054906101000a900473ffffffffffffffffffffffffffffffffffffffff1673ffffffffffffffffffffffffffffffffffffffff163373ffffffffffffffffffffffffffffffffffffffff167f8b410880f971aa88cd40329336ab63e4fc6911bb0aabb7764067214546f899b384604051610b5b9190610f23565b60405180910390a3505050565b600160003373ffffffffffffffffffffffffffffffffffffffff1673ffffffffffffffffffffffffffffffffffffffff16815260200190815260200160002060009054906101000a900460ff1615610bf5576040517f08c379a0000000000000000000000000000000000000000000000000000000008152600401610bec90611816565b60405180910390fd5b60008111610c38576040517f08c379a0000000000000000000000000000000000000000000000000000000008152600401610c2f906116d2565b60405180910390fd5b60008060003373ffffffffffffffffffffffffffffffffffffffff1673ffffffffffffffffffffffffffffffffffffffff168152602001908152602001600020905083816000019081610c8b91906119e2565b5082816001019081610c9d91906119e2565b5081816002018190555060018160030160006101000a81548160ff02191690831515021790555060018060003373ffffffffffffffffffffffffffffffffffffffff1673ffffffffffffffffffffffffffffffffffffffff16815260200190815260200160002060006101000a81548160ff0219169083151502179055503373ffffffffffffffffffffffffffffffffffffffff167f2ceab1c6930543e076df982ab126f352988b14512c7308b10d6f5a7c0e0735bc8584604051610d63929190611ab4565b60405180910390a250505050565b6060806000806000806000808873ffffffffffffffffffffffffffffffffffffffff1673ffffffffffffffffffffffffffffffffffffffff1681526020019081526020016000209050806000018160010182600201548360030160009054906101000a900460ff168460040154848054610dea9061138c565b80601f0160208091040260200160405190810160405280929190818152602001828054610e169061138c565b8015610e635780601f10610e3857610100808354040283529160200191610e63565b820191906000526020600020905b815481529060010190602001808311610e4657829003601f168201915b50505050509450838054610e769061138c565b80601f0160208091040260200160405190810160405280929190818152602001828054610ea29061138c565b8015610eef5780601f10610ec457610100808354040283529160200191610eef565b820191906000526020600020905b815481529060010190602001808311610ed257829003601f168201915b50505050509350955095509550955095505091939590929450565b6000819050919050565b610f1d81610f0a565b82525050565b6000602082019050610f386000830184610f14565b92915050565b6000604051905090565b600080fd5b600080fd5b600073ffffffffffffffffffffffffffffffffffffffff82169050919050565b6000610f7d82610f52565b9050919050565b610f8d81610f72565b8114610f9857600080fd5b50565b600081359050610faa81610f84565b92915050565b600060208284031215610fc657610fc5610f48565b5b6000610fd484828501610f9b565b91505092915050565b60008115159050919050565b610ff281610fdd565b82525050565b600060208201905061100d6000830184610fe9565b92915050565b600081519050919050565b600082825260208201905092915050565b60005b8381101561104d578082015181840152602081019050611032565b60008484015250505050565b6000601f19601f8301169050919050565b600061107582611013565b61107f818561101e565b935061108f81856020860161102f565b61109881611059565b840191505092915050565b600060a08201905081810360008301526110bd818861106a565b905081810360208301526110d1818761106a565b90506110e06040830186610f14565b6110ed6060830185610fe9565b6110fa6080830184610f14565b9695505050505050565b61110d81610f0a565b811461111857600080fd5b50565b60008135905061112a81611104565b92915050565b60006020828403121561114657611145610f48565b5b60006111548482850161111b565b91505092915050565b6000806040838503121561117457611173610f48565b5b60006111828582860161111b565b92505060206111938582860161111b565b9150509250929050565b600080fd5b600080fd5b7f4e487b7100000000000000000000000000000000000000000000000000000000600052604160045260246000fd5b6111df82611059565b810181811067ffffffffffffffff821117156111fe576111fd6111a7565b5b80604052505050565b6000611211610f3e565b905061121d82826111d6565b919050565b600067ffffffffffffffff82111561123d5761123c6111a7565b5b61124682611059565b9050602081019050919050565b82818337600083830152505050565b600061127561127084611222565b611207565b905082815260208101848484011115611291576112906111a2565b5b61129c848285611253565b509392505050565b600082601f8301126112b9576112b861119d565b5b81356112c9848260208601611262565b91505092915050565b6000806000606084860312156112eb576112ea610f48565b5b600084013567ffffffffffffffff81111561130957611308610f4d565b5b611315868287016112a4565b935050602084013567ffffffffffffffff81111561133657611335610f4d565b5b611342868287016112a4565b92505060406113538682870161111b565b9150509250925092565b7f4e487b7100000000000000000000000000000000000000000000000000000000600052602260045260246000fd5b600060028204905060018216806113a457607f821691505b6020821081036113b7576113b661135d565b5b50919050565b7f4e6f742061207265676973746572656420646576656c6f706572000000000000600082015250565b60006113f3601a8361101e565b91506113fe826113bd565b602082019050919050565b60006020820190508181036000830152611422816113e6565b9050919050565b7f446576656c6f706572206e6f7420726567697374657265640000000000000000600082015250565b600061145f60188361101e565b915061146a82611429565b602082019050919050565b6000602082019050818103600083015261148e81611452565b9050919050565b7f446576656c6f706572206e6f7420616374697665000000000000000000000000600082015250565b60006114cb60148361101e565b91506114d682611495565b602082019050919050565b600060208201905081810360008301526114fa816114be565b9050919050565b7f4e487b7100000000000000000000000000000000000000000000000000000000600052601160045260246000fd5b600061153b82610f0a565b915061154683610f0a565b925082820261155481610f0a565b9150828204841483151761156b5761156a611501565b5b5092915050565b7f4e487b7100000000000000000000000000000000000000000000000000000000600052601260045260246000fd5b60006115ac82610f0a565b91506115b783610f0a565b9250826115c7576115c6611572565b5b828204905092915050565b7f496e73756666696369656e74207061796d656e74000000000000000000000000600082015250565b600061160860148361101e565b9150611613826115d2565b602082019050919050565b60006020820190508181036000830152611637816115fb565b9050919050565b600061164982610f0a565b91507fffffffffffffffffffffffffffffffffffffffffffffffffffffffffffffffff820361167b5761167a611501565b5b600182019050919050565b7f496e76616c696420686f75726c79207261746500000000000000000000000000600082015250565b60006116bc60138361101e565b91506116c782611686565b602082019050919050565b600060208201905081810360008301526116eb816116af565b9050919050565b7f43616c6c20616c726561647920636f6d706c6574656400000000000000000000600082015250565b600061172860168361101e565b9150611733826116f2565b602082019050919050565b600060208201905081810360008301526117578161171b565b9050919050565b7f43616c6c206e6f74207061696400000000000000000000000000000000000000600082015250565b6000611794600d8361101e565b915061179f8261175e565b602082019050919050565b600060208201905081810360008301526117c381611787565b9050919050565b7f416c726561647920726567697374657265640000000000000000000000000000600082015250565b600061180060128361101e565b915061180b826117ca565b602082019050919050565b6000602082019050818103600083015261182f816117f3565b9050919050565b60008190508160005260206000209050919050565b60006020601f8301049050919050565b600082821b905092915050565b6000600883026118987fffffffffffffffffffffffffffffffffffffffffffffffffffffffffffffffff8261185b565b6118a2868361185b565b95508019841693508086168417925050509392505050565b6000819050919050565b60006118df6118da6118d584610f0a565b6118ba565b610f0a565b9050919050565b6000819050919050565b6118f9836118c4565b61190d611905826118e6565b848454611868565b825550505050565b600090565b611922611915565b61192d8184846118f0565b505050565b5b818110156119515761194660008261191a565b600181019050611933565b5050565b601f8211156119965761196781611836565b6119708461184b565b8101602085101561197f578190505b61199361198b8561184b565b830182611932565b50505b505050565b600082821c905092915050565b60006119b96000198460080261199b565b1980831691505092915050565b60006119d283836119a8565b9150826002028217905092915050565b6119eb82611013565b67ffffffffffffffff811115611a0457611a036111a7565b5b611a0e825461138c565b611a19828285611955565b600060209050601f831160018114611a4c5760008415611a3a578287015190505b611a4485826119c6565b865550611aac565b601f198416611a5a86611836565b60005b82811015611a8257848901518255600182019150602085019450602081019050611a5d565b86831015611a9f5784890151611a9b601f8916826119a8565b8355505b6001600288020188555050505b505050505050565b60006040820190508181036000830152611ace818561106a565b9050611add6020830184610f14565b939250505056fea26469706673582212204c333527553e156813d00fc29a702065b1205c3b39191cfedb1940d108fe3dc664736f6c63430008130033",
  "linkReferences": {},
  "deployedLinkReferences": {}
}