{
  "_format": "hh-sol-artifact-1",
  "contractName": "DevConnect",
  "sourceName": "contracts/DevConnect.sol",
  "abi": [
    {
      "anonymous": false,
      "inputs": [
        {
          "indexed": true,
          "internalType": "address",
          "name": "developer",
          "type": "address"
        },
        {
          "indexed": false,
          "internalType": "bool",
          "name": "isAvailable",
          "type": "bool"
        }
      ],
      "name": "AvailabilityToggled",
      "type": "event"
    },
    {
      "anonymous": false,
      "inputs": [
        {
          "indexed": true,
          "internalType": "address",
          "name": "developer",
          "type": "address"
        },
        {
          "indexed": true,
          "internalType": "address",
          "name": "client",
          "type": "address"
        },
        {
          "indexed": false,
          "internalType": "uint256",
          "name": "requestId",
          "type": "uint256"
        }
      ],
      "name": "CallAccepted",
      "type": "event"
    },
    {
      "anonymous": false,
      "inputs": [
        {
          "indexed": true,
          "internalType": "address",
          "name": "developer",
          "type": "address"
        },
        {
          "indexed": true,
          "internalType": "address",
          "name": "client",
          "type": "address"
        },
        {
          "indexed": false,
          "internalType": "uint256",
          "name": "amount",
          "type": "uint256"
        }
      ],
      "name": "CallBooked",
      "type": "event"
    },
    {
      "anonymous": false,
      "inputs": [
        {
          "indexed": false,
          "internalType": "uint256",
          "name": "callId",
          "type": "uint256"
        },
        {
          "indexed": false,
          "internalType": "uint256",
          "name": "duration",
          "type": "uint256"
        }
      ],
      "name": "CallCompleted",
      "type": "event"
    },
    {
      "anonymous": false,
      "inputs": [
        {
          "indexed": true,
          "internalType": "address",
          "name": "developer",
          "type": "address"
        },
        {
          "indexed": true,
          "internalType": "address",
          "name": "client",
          "type": "address"
        },
        {
          "indexed": false,
          "internalType": "uint256",
          "name": "requestId",
          "type": "uint256"
        }
      ],
      "name": "CallRejected",
      "type": "event"
    },
    {
      "anonymous": false,
      "inputs": [
        {
          "indexed": true,
          "internalType": "address",
          "name": "developer",
          "type": "address"
        },
        {
          "indexed": true,
          "internalType": "address",
          "name": "client",
          "type": "address"
        },
        {
          "indexed": false,
          "internalType": "uint256",
          "name": "requestId",
          "type": "uint256"
        }
      ],
      "name": "CallRequested",
      "type": "event"
    },
    {
      "anonymous": false,
      "inputs": [
        {
          "indexed": true,
          "internalType": "address",
          "name": "developer",
          "type": "address"
        },
        {
          "indexed": false,
          "internalType": "string",
          "name": "name",
          "type": "string"
        },
        {
          "indexed": false,
          "internalType": "string",
          "name": "expertise",
          "type": "string"
        },
        {
          "indexed": false,
          "internalType": "uint256",
          "name": "hourlyRate",
          "type": "uint256"
        }
      ],
      "name": "DeveloperRegistered",
      "type": "event"
    },
    {
      "inputs": [
        {
          "internalType": "address",
          "name": "_developer",
          "type": "address"
        }
      ],
      "name": "bookCall",
      "outputs": [],
      "stateMutability": "payable",
      "type": "function"
    },
    {
      "inputs": [
        {
          "internalType": "address",
          "name": "",
          "type": "address"
        },
        {
          "internalType": "uint256",
          "name": "",
          "type": "uint256"
        }
      ],
      "name": "callRequests",
      "outputs": [
        {
          "internalType": "address",
          "name": "client",
          "type": "address"
        },
        {
          "internalType": "uint256",
          "name": "amount",
          "type": "uint256"
        },
        {
          "internalType": "bool",
          "name": "accepted",
          "type": "bool"
        },
        {
          "internalType": "bool",
          "name": "responded",
          "type": "bool"
        }
      ],
      "stateMutability": "view",
      "type": "function"
    },
    {
      "inputs": [
        {
          "internalType": "uint256",
          "name": "_callId",
          "type": "uint256"
        },
        {
          "internalType": "uint256",
          "name": "_duration",
          "type": "uint256"
        }
      ],
      "name": "completeCall",
      "outputs": [],
      "stateMutability": "nonpayable",
      "type": "function"
    },
    {
      "inputs": [
        {
          "internalType": "uint256",
          "name": "",
          "type": "uint256"
        }
      ],
      "name": "developerAddresses",
      "outputs": [
        {
          "internalType": "address",
          "name": "",
          "type": "address"
        }
      ],
      "stateMutability": "view",
      "type": "function"
    },
    {
      "inputs": [
        {
          "internalType": "address",
          "name": "",
          "type": "address"
        }
      ],
      "name": "developers",
      "outputs": [
        {
          "internalType": "string",
          "name": "name",
          "type": "string"
        },
        {
          "internalType": "string",
          "name": "expertise",
          "type": "string"
        },
        {
          "internalType": "uint256",
          "name": "hourlyRate",
          "type": "uint256"
        },
        {
          "internalType": "bool",
          "name": "isAvailable",
          "type": "bool"
        },
        {
          "internalType": "bool",
          "name": "isRegistered",
          "type": "bool"
        }
      ],
      "stateMutability": "view",
      "type": "function"
    },
    {
      "inputs": [
        {
          "internalType": "uint256",
          "name": "_index",
          "type": "uint256"
        }
      ],
      "name": "getDeveloperAddress",
      "outputs": [
        {
          "internalType": "address",
          "name": "",
          "type": "address"
        }
      ],
      "stateMutability": "view",
      "type": "function"
    },
    {
      "inputs": [],
      "name": "getDeveloperCount",
      "outputs": [
        {
          "internalType": "uint256",
          "name": "",
          "type": "uint256"
        }
      ],
      "stateMutability": "view",
      "type": "function"
    },
    {
      "inputs": [
        {
          "internalType": "address",
          "name": "_developer",
          "type": "address"
        }
      ],
      "name": "getDeveloperDetails",
      "outputs": [
        {
          "internalType": "string",
          "name": "name",
          "type": "string"
        },
        {
          "internalType": "string",
          "name": "expertise",
          "type": "string"
        },
        {
          "internalType": "uint256",
          "name": "hourlyRate",
          "type": "uint256"
        },
        {
          "internalType": "bool",
          "name": "isAvailable",
          "type": "bool"
        },
        {
          "internalType": "bool",
          "name": "isRegistered",
          "type": "bool"
        }
      ],
      "stateMutability": "view",
      "type": "function"
    },
    {
      "inputs": [
        {
          "internalType": "string",
          "name": "_name",
          "type": "string"
        },
        {
          "internalType": "string",
          "name": "_expertise",
          "type": "string"
        },
        {
          "internalType": "uint256",
          "name": "_hourlyRate",
          "type": "uint256"
        }
      ],
      "name": "registerDeveloper",
      "outputs": [],
      "stateMutability": "nonpayable",
      "type": "function"
    },
    {
      "inputs": [
        {
          "internalType": "uint256",
          "name": "_requestId",
          "type": "uint256"
        },
        {
          "internalType": "bool",
          "name": "_accept",
          "type": "bool"
        }
      ],
      "name": "respondToCallRequest",
      "outputs": [],
      "stateMutability": "nonpayable",
      "type": "function"
    },
    {
      "inputs": [],
      "name": "toggleAvailability",
      "outputs": [],
      "stateMutability": "nonpayable",
      "type": "function"
    }
  ],
  "bytecode": "0x608060405234801561001057600080fd5b50612035806100206000396000f3fe60806040526004361061009c5760003560e01c806370a2b84a1161006457806370a2b84a146101b35780638cf1e602146101ca578063a6a576d8146101e6578063c0a560ef1461020f578063cac92ed01461024c578063f262d6d0146102755761009c565b806301f7c05f146100a157806312c443f3146100e157806313997fc81461010c57806321ffad3f1461014957806361fd5c2014610172575b600080fd5b3480156100ad57600080fd5b506100c860048036038101906100c39190611360565b6102b6565b6040516100d894939291906113d9565b60405180910390f35b3480156100ed57600080fd5b506100f661033d565b604051610103919061141e565b60405180910390f35b34801561011857600080fd5b50610133600480360381019061012e9190611439565b610349565b6040516101409190611466565b60405180910390f35b34801561015557600080fd5b50610170600480360381019061016b91906114ad565b610388565b005b34801561017e57600080fd5b50610199600480360381019061019491906114ed565b61068c565b6040516101aa9594939291906115aa565b60405180910390f35b3480156101bf57600080fd5b506101c86107ec565b005b6101e460048036038101906101df91906114ed565b6109c4565b005b3480156101f257600080fd5b5061020d6004803603810190610208919061160b565b610d0d565b005b34801561021b57600080fd5b5061023660048036038101906102319190611439565b610d4a565b6040516102439190611466565b60405180910390f35b34801561025857600080fd5b50610273600480360381019061026e9190611780565b610dd8565b005b34801561028157600080fd5b5061029c600480360381019061029791906114ed565b6110d2565b6040516102ad9594939291906115aa565b60405180910390f35b600260205281600052604060002081815481106102d257600080fd5b9060005260206000209060030201600091509150508060000160009054906101000a900473ffffffffffffffffffffffffffffffffffffffff16908060010154908060020160009054906101000a900460ff16908060020160019054906101000a900460ff16905084565b60008080549050905090565b6000818154811061035957600080fd5b906000526020600020016000915054906101000a900473ffffffffffffffffffffffffffffffffffffffff1681565b600260003373ffffffffffffffffffffffffffffffffffffffff1673ffffffffffffffffffffffffffffffffffffffff16815260200190815260200160002080549050821061040c576040517f08c379a000000000000000000000000000000000000000000000000000000000815260040161040390611857565b60405180910390fd5b6000600260003373ffffffffffffffffffffffffffffffffffffffff1673ffffffffffffffffffffffffffffffffffffffff168152602001908152602001600020838154811061045f5761045e611877565b5b906000526020600020906003020190508060020160019054906101000a900460ff16156104c1576040517f08c379a00000000000000000000000000000000000000000000000000000000081526004016104b8906118f2565b60405180910390fd5b60018160020160016101000a81548160ff021916908315150217905550818160020160006101000a81548160ff021916908315150217905550811561058e578060000160009054906101000a900473ffffffffffffffffffffffffffffffffffffffff1673ffffffffffffffffffffffffffffffffffffffff163373ffffffffffffffffffffffffffffffffffffffff167f9afe6e30be9b6a2c0fbc64f07fa5f92e3de53df76fed4627d9aaa2a0f61f61f185604051610581919061141e565b60405180910390a3610687565b8060000160009054906101000a900473ffffffffffffffffffffffffffffffffffffffff1673ffffffffffffffffffffffffffffffffffffffff166108fc82600101549081150290604051600060405180830381858888f193505050501580156105fc573d6000803e3d6000fd5b508060000160009054906101000a900473ffffffffffffffffffffffffffffffffffffffff1673ffffffffffffffffffffffffffffffffffffffff163373ffffffffffffffffffffffffffffffffffffffff167fdf091bcc0f3e9b8e1c1035fbec3bef6e7824e25052c2132766cd7290ff5f43768560405161067e919061141e565b60405180910390a35b505050565b60016020528060005260406000206000915090508060000180546106af90611941565b80601f01602080910402602001604051908101604052809291908181526020018280546106db90611941565b80156107285780601f106106fd57610100808354040283529160200191610728565b820191906000526020600020905b81548152906001019060200180831161070b57829003601f168201915b50505050509080600101805461073d90611941565b80601f016020809104026020016040519081016040528092919081815260200182805461076990611941565b80156107b65780601f1061078b576101008083540402835291602001916107b6565b820191906000526020600020905b81548152906001019060200180831161079957829003601f168201915b5050505050908060020154908060030160009054906101000a900460ff16908060030160019054906101000a900460ff16905085565b600160003373ffffffffffffffffffffffffffffffffffffffff1673ffffffffffffffffffffffffffffffffffffffff16815260200190815260200160002060030160019054906101000a900460ff1661087b576040517f08c379a0000000000000000000000000000000000000000000000000000000008152600401610872906119be565b60405180910390fd5b600160003373ffffffffffffffffffffffffffffffffffffffff1673ffffffffffffffffffffffffffffffffffffffff16815260200190815260200160002060030160009054906101000a900460ff1615600160003373ffffffffffffffffffffffffffffffffffffffff1673ffffffffffffffffffffffffffffffffffffffff16815260200190815260200160002060030160006101000a81548160ff0219169083151502179055503373ffffffffffffffffffffffffffffffffffffffff167feaa8fc57c4c27316368c2e5c2ab5f4cbb7628c5a34c5eb0c44c2c3f0f551a758600160003373ffffffffffffffffffffffffffffffffffffffff1673ffffffffffffffffffffffffffffffffffffffff16815260200190815260200160002060030160009054906101000a900460ff166040516109ba91906119de565b60405180910390a2565b600160008273ffffffffffffffffffffffffffffffffffffffff1673ffffffffffffffffffffffffffffffffffffffff16815260200190815260200160002060030160019054906101000a900460ff16610a53576040517f08c379a0000000000000000000000000000000000000000000000000000000008152600401610a4a906119be565b60405180910390fd5b600160008273ffffffffffffffffffffffffffffffffffffffff1673ffffffffffffffffffffffffffffffffffffffff16815260200190815260200160002060030160009054906101000a900460ff16610ae2576040517f08c379a0000000000000000000000000000000000000000000000000000000008152600401610ad990611a45565b60405180910390fd5b60003411610b25576040517f08c379a0000000000000000000000000000000000000000000000000000000008152600401610b1c90611ab1565b60405180910390fd5b6000600260008373ffffffffffffffffffffffffffffffffffffffff1673ffffffffffffffffffffffffffffffffffffffff168152602001908152602001600020805490509050600260008373ffffffffffffffffffffffffffffffffffffffff1673ffffffffffffffffffffffffffffffffffffffff16815260200190815260200160002060405180608001604052803373ffffffffffffffffffffffffffffffffffffffff16815260200134815260200160001515815260200160001515815250908060018154018082558091505060019003906000526020600020906003020160009091909190915060008201518160000160006101000a81548173ffffffffffffffffffffffffffffffffffffffff021916908373ffffffffffffffffffffffffffffffffffffffff1602179055506020820151816001015560408201518160020160006101000a81548160ff02191690831515021790555060608201518160020160016101000a81548160ff02191690831515021790555050503373ffffffffffffffffffffffffffffffffffffffff168273ffffffffffffffffffffffffffffffffffffffff167f0f5195e72dd4d74f3e937734c089a96e52bd5a1a77942e8cf316bccc72d184b683604051610d01919061141e565b60405180910390a35050565b7f97eb56b68ae7085e423f94f76e8183181625053f0f665cedb3710d1da06e13338282604051610d3e929190611ad1565b60405180910390a15050565b600080805490508210610d92576040517f08c379a0000000000000000000000000000000000000000000000000000000008152600401610d8990611b46565b60405180910390fd5b60008281548110610da657610da5611877565b5b9060005260206000200160009054906101000a900473ffffffffffffffffffffffffffffffffffffffff169050919050565b600160003373ffffffffffffffffffffffffffffffffffffffff1673ffffffffffffffffffffffffffffffffffffffff16815260200190815260200160002060030160019054906101000a900460ff1615610e68576040517f08c379a0000000000000000000000000000000000000000000000000000000008152600401610e5f90611bb2565b60405180910390fd5b6000835111610eac576040517f08c379a0000000000000000000000000000000000000000000000000000000008152600401610ea390611c1e565b60405180910390fd5b6000825111610ef0576040517f08c379a0000000000000000000000000000000000000000000000000000000008152600401610ee790611c8a565b60405180910390fd5b60008111610f33576040517f08c379a0000000000000000000000000000000000000000000000000000000008152600401610f2a90611d1c565b60405180910390fd5b6040518060a0016040528084815260200183815260200182815260200160011515815260200160011515815250600160003373ffffffffffffffffffffffffffffffffffffffff1673ffffffffffffffffffffffffffffffffffffffff1681526020019081526020016000206000820151816000019081610fb49190611ee8565b506020820151816001019081610fca9190611ee8565b506040820151816002015560608201518160030160006101000a81548160ff02191690831515021790555060808201518160030160016101000a81548160ff0219169083151502179055509050506000339080600181540180825580915050600190039060005260206000200160009091909190916101000a81548173ffffffffffffffffffffffffffffffffffffffff021916908373ffffffffffffffffffffffffffffffffffffffff1602179055503373ffffffffffffffffffffffffffffffffffffffff167f5c9ab8c200f3842d1b014caf1600de5cadcb9fb694fa541edf7e343f1038993c8484846040516110c593929190611fba565b60405180910390a2505050565b606080600080600080600160008873ffffffffffffffffffffffffffffffffffffffff1673ffffffffffffffffffffffffffffffffffffffff1681526020019081526020016000206040518060a001604052908160008201805461113590611941565b80601f016020809104026020016040519081016040528092919081815260200182805461116190611941565b80156111ae5780601f10611183576101008083540402835291602001916111ae565b820191906000526020600020905b81548152906001019060200180831161119157829003601f168201915b505050505081526020016001820180546111c790611941565b80601f01602080910402602001604051908101604052809291908181526020018280546111f390611941565b80156112405780601f1061121557610100808354040283529160200191611240565b820191906000526020600020905b81548152906001019060200180831161122357829003601f168201915b50505050508152602001600282015481526020016003820160009054906101000a900460ff161515151581526020016003820160019054906101000a900460ff161515151581525050905080600001518160200151826040015183606001518460800151955095509550955095505091939590929450565b6000604051905090565b600080fd5b600080fd5b600073ffffffffffffffffffffffffffffffffffffffff82169050919050565b60006112f7826112cc565b9050919050565b611307816112ec565b811461131257600080fd5b50565b600081359050611324816112fe565b92915050565b6000819050919050565b61133d8161132a565b811461134857600080fd5b50565b60008135905061135a81611334565b92915050565b60008060408385031215611377576113766112c2565b5b600061138585828601611315565b92505060206113968582860161134b565b9150509250929050565b6113a9816112ec565b82525050565b6113b88161132a565b82525050565b60008115159050919050565b6113d3816113be565b82525050565b60006080820190506113ee60008301876113a0565b6113fb60208301866113af565b61140860408301856113ca565b61141560608301846113ca565b95945050505050565b600060208201905061143360008301846113af565b92915050565b60006020828403121561144f5761144e6112c2565b5b600061145d8482850161134b565b91505092915050565b600060208201905061147b60008301846113a0565b92915050565b61148a816113be565b811461149557600080fd5b50565b6000813590506114a781611481565b92915050565b600080604083850312156114c4576114c36112c2565b5b60006114d28582860161134b565b92505060206114e385828601611498565b9150509250929050565b600060208284031215611503576115026112c2565b5b600061151184828501611315565b91505092915050565b600081519050919050565b600082825260208201905092915050565b60005b83811015611554578082015181840152602081019050611539565b60008484015250505050565b6000601f19601f8301169050919050565b600061157c8261151a565b6115868185611525565b9350611596818560208601611536565b61159f81611560565b840191505092915050565b600060a08201905081810360008301526115c48188611571565b905081810360208301526115d88187611571565b90506115e760408301866113af565b6115f460608301856113ca565b61160160808301846113ca565b9695505050505050565b60008060408385031215611622576116216112c2565b5b60006116308582860161134b565b92505060206116418582860161134b565b9150509250929050565b600080fd5b600080fd5b7f4e487b7100000000000000000000000000000000000000000000000000000000600052604160045260246000fd5b61168d82611560565b810181811067ffffffffffffffff821117156116ac576116ab611655565b5b80604052505050565b60006116bf6112b8565b90506116cb8282611684565b919050565b600067ffffffffffffffff8211156116eb576116ea611655565b5b6116f482611560565b9050602081019050919050565b82818337600083830152505050565b600061172361171e846116d0565b6116b5565b90508281526020810184848401111561173f5761173e611650565b5b61174a848285611701565b509392505050565b600082601f8301126117675761176661164b565b5b8135611777848260208601611710565b91505092915050565b600080600060608486031215611799576117986112c2565b5b600084013567ffffffffffffffff8111156117b7576117b66112c7565b5b6117c386828701611752565b935050602084013567ffffffffffffffff8111156117e4576117e36112c7565b5b6117f086828701611752565b92505060406118018682870161134b565b9150509250925092565b7f496e76616c696420726571756573742049440000000000000000000000000000600082015250565b6000611841601283611525565b915061184c8261180b565b602082019050919050565b6000602082019050818103600083015261187081611834565b9050919050565b7f4e487b7100000000000000000000000000000000000000000000000000000000600052603260045260246000fd5b7f416c726561647920726573706f6e646564000000000000000000000000000000600082015250565b60006118dc601183611525565b91506118e7826118a6565b602082019050919050565b6000602082019050818103600083015261190b816118cf565b9050919050565b7f4e487b7100000000000000000000000000000000000000000000000000000000600052602260045260246000fd5b6000600282049050600182168061195957607f821691505b60208210810361196c5761196b611912565b5b50919050565b7f446576656c6f706572206e6f7420726567697374657265640000000000000000600082015250565b60006119a8601883611525565b91506119b382611972565b602082019050919050565b600060208201905081810360008301526119d78161199b565b9050919050565b60006020820190506119f360008301846113ca565b92915050565b7f446576656c6f706572206e6f7420617661696c61626c65000000000000000000600082015250565b6000611a2f601783611525565b9150611a3a826119f9565b602082019050919050565b60006020820190508181036000830152611a5e81611a22565b9050919050565b7f5061796d656e7420726571756972656400000000000000000000000000000000600082015250565b6000611a9b601083611525565b9150611aa682611a65565b602082019050919050565b60006020820190508181036000830152611aca81611a8e565b9050919050565b6000604082019050611ae660008301856113af565b611af360208301846113af565b9392505050565b7f496e646578206f7574206f6620626f756e647300000000000000000000000000600082015250565b6000611b30601383611525565b9150611b3b82611afa565b602082019050919050565b60006020820190508181036000830152611b5f81611b23565b9050919050565b7f446576656c6f70657220616c7265616479207265676973746572656400000000600082015250565b6000611b9c601c83611525565b9150611ba782611b66565b602082019050919050565b60006020820190508181036000830152611bcb81611b8f565b9050919050565b7f4e616d652063616e6e6f7420626520656d707479000000000000000000000000600082015250565b6000611c08601483611525565b9150611c1382611bd2565b602082019050919050565b60006020820190508181036000830152611c3781611bfb565b9050919050565b7f4578706572746973652063616e6e6f7420626520656d70747900000000000000600082015250565b6000611c74601983611525565b9150611c7f82611c3e565b602082019050919050565b60006020820190508181036000830152611ca381611c67565b9050919050565b7f486f75726c792072617465206d7573742062652067726561746572207468616e60008201527f2030000000000000000000000000000000000000000000000000000000000000602082015250565b6000611d06602283611525565b9150611d1182611caa565b604082019050919050565b60006020820190508181036000830152611d3581611cf9565b9050919050565b60008190508160005260206000209050919050565b60006020601f8301049050919050565b600082821b905092915050565b600060088302611d9e7fffffffffffffffffffffffffffffffffffffffffffffffffffffffffffffffff82611d61565b611da88683611d61565b95508019841693508086168417925050509392505050565b6000819050919050565b6000611de5611de0611ddb8461132a565b611dc0565b61132a565b9050919050565b6000819050919050565b611dff83611dca565b611e13611e0b82611dec565b848454611d6e565b825550505050565b600090565b611e28611e1b565b611e33818484611df6565b505050565b5b81811015611e5757611e4c600082611e20565b600181019050611e39565b5050565b601f821115611e9c57611e6d81611d3c565b611e7684611d51565b81016020851015611e85578190505b611e99611e9185611d51565b830182611e38565b50505b505050565b600082821c905092915050565b6000611ebf60001984600802611ea1565b1980831691505092915050565b6000611ed88383611eae565b9150826002028217905092915050565b611ef18261151a565b67ffffffffffffffff811115611f0a57611f09611655565b5b611f148254611941565b611f1f828285611e5b565b600060209050601f831160018114611f525760008415611f40578287015190505b611f4a8582611ecc565b865550611fb2565b601f198416611f6086611d3c565b60005b82811015611f8857848901518255600182019150602085019450602081019050611f63565b86831015611fa55784890151611fa1601f891682611eae565b8355505b6001600288020188555050505b505050505050565b60006060820190508181036000830152611fd48186611571565b90508181036020830152611fe88185611571565b9050611ff760408301846113af565b94935050505056fea264697066735822122056bd2e014cfaf7f17e6a5d2e09eca83296e2ecaa2caea2097bd32d5e1ac0f3ce64736f6c63430008130033",
  "linkReferences": {},
  "deployedLinkReferences": {}
}