{
  "_format": "hh-sol-artifact-1",
  "contractName": "DevConnect",
  "sourceName": "contracts/DevConnect.sol",
  "abi": [
    {
      "anonymous": false,
      "inputs": [
        {
          "indexed": true,
          "internalType": "address",
          "name": "developer",
          "type": "address"
        },
        {
          "indexed": false,
          "internalType": "bool",
          "name": "isAvailable",
          "type": "bool"
        }
      ],
      "name": "AvailabilityToggled",
      "type": "event"
    },
    {
      "anonymous": false,
      "inputs": [
        {
          "indexed": true,
          "internalType": "address",
          "name": "developer",
          "type": "address"
        },
        {
          "indexed": true,
          "internalType": "address",
          "name": "client",
          "type": "address"
        },
        {
          "indexed": false,
          "internalType": "uint256",
          "name": "requestId",
          "type": "uint256"
        },
        {
          "indexed": false,
          "internalType": "string",
          "name": "roomId",
          "type": "string"
        }
      ],
      "name": "CallAccepted",
      "type": "event"
    },
    {
      "anonymous": false,
      "inputs": [
        {
          "indexed": true,
          "internalType": "address",
          "name": "developer",
          "type": "address"
        },
        {
          "indexed": true,
          "internalType": "address",
          "name": "client",
          "type": "address"
        },
        {
          "indexed": false,
          "internalType": "uint256",
          "name": "amount",
          "type": "uint256"
        }
      ],
      "name": "CallBooked",
      "type": "event"
    },
    {
      "anonymous": false,
      "inputs": [
        {
          "indexed": false,
          "internalType": "uint256",
          "name": "callId",
          "type": "uint256"
        },
        {
          "indexed": false,
          "internalType": "uint256",
          "name": "duration",
          "type": "uint256"
        }
      ],
      "name": "CallCompleted",
      "type": "event"
    },
    {
      "anonymous": false,
      "inputs": [
        {
          "indexed": true,
          "internalType": "address",
          "name": "developer",
          "type": "address"
        },
        {
          "indexed": true,
          "internalType": "address",
          "name": "client",
          "type": "address"
        },
        {
          "indexed": false,
          "internalType": "uint256",
          "name": "requestId",
          "type": "uint256"
        }
      ],
      "name": "CallRejected",
      "type": "event"
    },
    {
      "anonymous": false,
      "inputs": [
        {
          "indexed": true,
          "internalType": "address",
          "name": "developer",
          "type": "address"
        },
        {
          "indexed": true,
          "internalType": "address",
          "name": "client",
          "type": "address"
        },
        {
          "indexed": false,
          "internalType": "uint256",
          "name": "requestId",
          "type": "uint256"
        }
      ],
      "name": "CallRequested",
      "type": "event"
    },
    {
      "anonymous": false,
      "inputs": [
        {
          "indexed": true,
          "internalType": "address",
          "name": "developer",
          "type": "address"
        },
        {
          "indexed": false,
          "internalType": "string",
          "name": "name",
          "type": "string"
        },
        {
          "indexed": false,
          "internalType": "string",
          "name": "expertise",
          "type": "string"
        },
        {
          "indexed": false,
          "internalType": "uint256",
          "name": "hourlyRate",
          "type": "uint256"
        }
      ],
      "name": "DeveloperRegistered",
      "type": "event"
    },
    {
      "inputs": [
        {
          "internalType": "address",
          "name": "_developer",
          "type": "address"
        }
      ],
      "name": "bookCall",
      "outputs": [],
      "stateMutability": "payable",
      "type": "function"
    },
    {
      "inputs": [
        {
          "internalType": "address",
          "name": "",
          "type": "address"
        },
        {
          "internalType": "uint256",
          "name": "",
          "type": "uint256"
        }
      ],
      "name": "callRequests",
      "outputs": [
        {
          "internalType": "address",
          "name": "client",
          "type": "address"
        },
        {
          "internalType": "uint256",
          "name": "amount",
          "type": "uint256"
        },
        {
          "internalType": "bool",
          "name": "accepted",
          "type": "bool"
        },
        {
          "internalType": "bool",
          "name": "responded",
          "type": "bool"
        }
      ],
      "stateMutability": "view",
      "type": "function"
    },
    {
      "inputs": [
        {
          "internalType": "uint256",
          "name": "_callId",
          "type": "uint256"
        },
        {
          "internalType": "uint256",
          "name": "_duration",
          "type": "uint256"
        }
      ],
      "name": "completeCall",
      "outputs": [],
      "stateMutability": "nonpayable",
      "type": "function"
    },
    {
      "inputs": [
        {
          "internalType": "uint256",
          "name": "",
          "type": "uint256"
        }
      ],
      "name": "developerAddresses",
      "outputs": [
        {
          "internalType": "address",
          "name": "",
          "type": "address"
        }
      ],
      "stateMutability": "view",
      "type": "function"
    },
    {
      "inputs": [
        {
          "internalType": "address",
          "name": "",
          "type": "address"
        }
      ],
      "name": "developers",
      "outputs": [
        {
          "internalType": "string",
          "name": "name",
          "type": "string"
        },
        {
          "internalType": "string",
          "name": "expertise",
          "type": "string"
        },
        {
          "internalType": "uint256",
          "name": "hourlyRate",
          "type": "uint256"
        },
        {
          "internalType": "bool",
          "name": "isAvailable",
          "type": "bool"
        },
        {
          "internalType": "bool",
          "name": "isRegistered",
          "type": "bool"
        }
      ],
      "stateMutability": "view",
      "type": "function"
    },
    {
      "inputs": [
        {
          "internalType": "uint256",
          "name": "_index",
          "type": "uint256"
        }
      ],
      "name": "getDeveloperAddress",
      "outputs": [
        {
          "internalType": "address",
          "name": "",
          "type": "address"
        }
      ],
      "stateMutability": "view",
      "type": "function"
    },
    {
      "inputs": [],
      "name": "getDeveloperCount",
      "outputs": [
        {
          "internalType": "uint256",
          "name": "",
          "type": "uint256"
        }
      ],
      "stateMutability": "view",
      "type": "function"
    },
    {
      "inputs": [
        {
          "internalType": "address",
          "name": "_developer",
          "type": "address"
        }
      ],
      "name": "getDeveloperDetails",
      "outputs": [
        {
          "internalType": "string",
          "name": "name",
          "type": "string"
        },
        {
          "internalType": "string",
          "name": "expertise",
          "type": "string"
        },
        {
          "internalType": "uint256",
          "name": "hourlyRate",
          "type": "uint256"
        },
        {
          "internalType": "bool",
          "name": "isAvailable",
          "type": "bool"
        },
        {
          "internalType": "bool",
          "name": "isRegistered",
          "type": "bool"
        }
      ],
      "stateMutability": "view",
      "type": "function"
    },
    {
      "inputs": [
        {
          "internalType": "string",
          "name": "_name",
          "type": "string"
        },
        {
          "internalType": "string",
          "name": "_expertise",
          "type": "string"
        },
        {
          "internalType": "uint256",
          "name": "_hourlyRate",
          "type": "uint256"
        }
      ],
      "name": "registerDeveloper",
      "outputs": [],
      "stateMutability": "nonpayable",
      "type": "function"
    },
    {
      "inputs": [
        {
          "internalType": "uint256",
          "name": "_requestId",
          "type": "uint256"
        },
        {
          "internalType": "bool",
          "name": "_accept",
          "type": "bool"
        }
      ],
      "name": "respondToCallRequest",
      "outputs": [],
      "stateMutability": "nonpayable",
      "type": "function"
    },
    {
      "inputs": [],
      "name": "toggleAvailability",
      "outputs": [],
      "stateMutability": "nonpayable",
      "type": "function"
    }
  ],
  "bytecode": "0x608060405234801561001057600080fd5b5061212a806100206000396000f3fe60806040526004361061009c5760003560e01c806370a2b84a1161006457806370a2b84a146101b35780638cf1e602146101ca578063a6a576d8146101e6578063c0a560ef1461020f578063cac92ed01461024c578063f262d6d0146102755761009c565b806301f7c05f146100a157806312c443f3146100e157806313997fc81461010c57806321ffad3f1461014957806361fd5c2014610172575b600080fd5b3480156100ad57600080fd5b506100c860048036038101906100c39190611387565b6102b6565b6040516100d89493929190611400565b60405180910390f35b3480156100ed57600080fd5b506100f661033d565b6040516101039190611445565b60405180910390f35b34801561011857600080fd5b50610133600480360381019061012e9190611460565b610349565b604051610140919061148d565b60405180910390f35b34801561015557600080fd5b50610170600480360381019061016b91906114d4565b610388565b005b34801561017e57600080fd5b5061019960048036038101906101949190611514565b6106b3565b6040516101aa9594939291906115d1565b60405180910390f35b3480156101bf57600080fd5b506101c8610813565b005b6101e460048036038101906101df9190611514565b6109eb565b005b3480156101f257600080fd5b5061020d60048036038101906102089190611632565b610d34565b005b34801561021b57600080fd5b5061023660048036038101906102319190611460565b610d71565b604051610243919061148d565b60405180910390f35b34801561025857600080fd5b50610273600480360381019061026e91906117a7565b610dff565b005b34801561028157600080fd5b5061029c60048036038101906102979190611514565b6110f9565b6040516102ad9594939291906115d1565b60405180910390f35b600260205281600052604060002081815481106102d257600080fd5b9060005260206000209060030201600091509150508060000160009054906101000a900473ffffffffffffffffffffffffffffffffffffffff16908060010154908060020160009054906101000a900460ff16908060020160019054906101000a900460ff16905084565b60008080549050905090565b6000818154811061035957600080fd5b906000526020600020016000915054906101000a900473ffffffffffffffffffffffffffffffffffffffff1681565b600260003373ffffffffffffffffffffffffffffffffffffffff1673ffffffffffffffffffffffffffffffffffffffff16815260200190815260200160002080549050821061040c576040517f08c379a00000000000000000000000000000000000000000000000000000000081526004016104039061187e565b60405180910390fd5b6000600260003373ffffffffffffffffffffffffffffffffffffffff1673ffffffffffffffffffffffffffffffffffffffff168152602001908152602001600020838154811061045f5761045e61189e565b5b906000526020600020906003020190508060020160019054906101000a900460ff16156104c1576040517f08c379a00000000000000000000000000000000000000000000000000000000081526004016104b890611919565b60405180910390fd5b60018160020160016101000a81548160ff021916908315150217905550818160020160006101000a81548160ff02191690831515021790555081156105b55760008360405160200161051391906119b1565b60405160208183030381529060405290508160000160009054906101000a900473ffffffffffffffffffffffffffffffffffffffff1673ffffffffffffffffffffffffffffffffffffffff163373ffffffffffffffffffffffffffffffffffffffff167f7da71c122eb9c925a5f7e471ae991f46d6001f956455ecc7052f8318a4a87bdc86846040516105a79291906119d7565b60405180910390a3506106ae565b8060000160009054906101000a900473ffffffffffffffffffffffffffffffffffffffff1673ffffffffffffffffffffffffffffffffffffffff166108fc82600101549081150290604051600060405180830381858888f19350505050158015610623573d6000803e3d6000fd5b508060000160009054906101000a900473ffffffffffffffffffffffffffffffffffffffff1673ffffffffffffffffffffffffffffffffffffffff163373ffffffffffffffffffffffffffffffffffffffff167fdf091bcc0f3e9b8e1c1035fbec3bef6e7824e25052c2132766cd7290ff5f4376856040516106a59190611445565b60405180910390a35b505050565b60016020528060005260406000206000915090508060000180546106d690611a36565b80601f016020809104026020016040519081016040528092919081815260200182805461070290611a36565b801561074f5780601f106107245761010080835404028352916020019161074f565b820191906000526020600020905b81548152906001019060200180831161073257829003601f168201915b50505050509080600101805461076490611a36565b80601f016020809104026020016040519081016040528092919081815260200182805461079090611a36565b80156107dd5780601f106107b2576101008083540402835291602001916107dd565b820191906000526020600020905b8154815290600101906020018083116107c057829003601f168201915b5050505050908060020154908060030160009054906101000a900460ff16908060030160019054906101000a900460ff16905085565b600160003373ffffffffffffffffffffffffffffffffffffffff1673ffffffffffffffffffffffffffffffffffffffff16815260200190815260200160002060030160019054906101000a900460ff166108a2576040517f08c379a000000000000000000000000000000000000000000000000000000000815260040161089990611ab3565b60405180910390fd5b600160003373ffffffffffffffffffffffffffffffffffffffff1673ffffffffffffffffffffffffffffffffffffffff16815260200190815260200160002060030160009054906101000a900460ff1615600160003373ffffffffffffffffffffffffffffffffffffffff1673ffffffffffffffffffffffffffffffffffffffff16815260200190815260200160002060030160006101000a81548160ff0219169083151502179055503373ffffffffffffffffffffffffffffffffffffffff167feaa8fc57c4c27316368c2e5c2ab5f4cbb7628c5a34c5eb0c44c2c3f0f551a758600160003373ffffffffffffffffffffffffffffffffffffffff1673ffffffffffffffffffffffffffffffffffffffff16815260200190815260200160002060030160009054906101000a900460ff166040516109e19190611ad3565b60405180910390a2565b600160008273ffffffffffffffffffffffffffffffffffffffff1673ffffffffffffffffffffffffffffffffffffffff16815260200190815260200160002060030160019054906101000a900460ff16610a7a576040517f08c379a0000000000000000000000000000000000000000000000000000000008152600401610a7190611ab3565b60405180910390fd5b600160008273ffffffffffffffffffffffffffffffffffffffff1673ffffffffffffffffffffffffffffffffffffffff16815260200190815260200160002060030160009054906101000a900460ff16610b09576040517f08c379a0000000000000000000000000000000000000000000000000000000008152600401610b0090611b3a565b60405180910390fd5b60003411610b4c576040517f08c379a0000000000000000000000000000000000000000000000000000000008152600401610b4390611ba6565b60405180910390fd5b6000600260008373ffffffffffffffffffffffffffffffffffffffff1673ffffffffffffffffffffffffffffffffffffffff168152602001908152602001600020805490509050600260008373ffffffffffffffffffffffffffffffffffffffff1673ffffffffffffffffffffffffffffffffffffffff16815260200190815260200160002060405180608001604052803373ffffffffffffffffffffffffffffffffffffffff16815260200134815260200160001515815260200160001515815250908060018154018082558091505060019003906000526020600020906003020160009091909190915060008201518160000160006101000a81548173ffffffffffffffffffffffffffffffffffffffff021916908373ffffffffffffffffffffffffffffffffffffffff1602179055506020820151816001015560408201518160020160006101000a81548160ff02191690831515021790555060608201518160020160016101000a81548160ff02191690831515021790555050503373ffffffffffffffffffffffffffffffffffffffff168273ffffffffffffffffffffffffffffffffffffffff167f0f5195e72dd4d74f3e937734c089a96e52bd5a1a77942e8cf316bccc72d184b683604051610d289190611445565b60405180910390a35050565b7f97eb56b68ae7085e423f94f76e8183181625053f0f665cedb3710d1da06e13338282604051610d65929190611bc6565b60405180910390a15050565b600080805490508210610db9576040517f08c379a0000000000000000000000000000000000000000000000000000000008152600401610db090611c3b565b60405180910390fd5b60008281548110610dcd57610dcc61189e565b5b9060005260206000200160009054906101000a900473ffffffffffffffffffffffffffffffffffffffff169050919050565b600160003373ffffffffffffffffffffffffffffffffffffffff1673ffffffffffffffffffffffffffffffffffffffff16815260200190815260200160002060030160019054906101000a900460ff1615610e8f576040517f08c379a0000000000000000000000000000000000000000000000000000000008152600401610e8690611ca7565b60405180910390fd5b6000835111610ed3576040517f08c379a0000000000000000000000000000000000000000000000000000000008152600401610eca90611d13565b60405180910390fd5b6000825111610f17576040517f08c379a0000000000000000000000000000000000000000000000000000000008152600401610f0e90611d7f565b60405180910390fd5b60008111610f5a576040517f08c379a0000000000000000000000000000000000000000000000000000000008152600401610f5190611e11565b60405180910390fd5b6040518060a0016040528084815260200183815260200182815260200160011515815260200160011515815250600160003373ffffffffffffffffffffffffffffffffffffffff1673ffffffffffffffffffffffffffffffffffffffff1681526020019081526020016000206000820151816000019081610fdb9190611fdd565b506020820151816001019081610ff19190611fdd565b506040820151816002015560608201518160030160006101000a81548160ff02191690831515021790555060808201518160030160016101000a81548160ff0219169083151502179055509050506000339080600181540180825580915050600190039060005260206000200160009091909190916101000a81548173ffffffffffffffffffffffffffffffffffffffff021916908373ffffffffffffffffffffffffffffffffffffffff1602179055503373ffffffffffffffffffffffffffffffffffffffff167f5c9ab8c200f3842d1b014caf1600de5cadcb9fb694fa541edf7e343f1038993c8484846040516110ec939291906120af565b60405180910390a2505050565b606080600080600080600160008873ffffffffffffffffffffffffffffffffffffffff1673ffffffffffffffffffffffffffffffffffffffff1681526020019081526020016000206040518060a001604052908160008201805461115c90611a36565b80601f016020809104026020016040519081016040528092919081815260200182805461118890611a36565b80156111d55780601f106111aa576101008083540402835291602001916111d5565b820191906000526020600020905b8154815290600101906020018083116111b857829003601f168201915b505050505081526020016001820180546111ee90611a36565b80601f016020809104026020016040519081016040528092919081815260200182805461121a90611a36565b80156112675780601f1061123c57610100808354040283529160200191611267565b820191906000526020600020905b81548152906001019060200180831161124a57829003601f168201915b50505050508152602001600282015481526020016003820160009054906101000a900460ff161515151581526020016003820160019054906101000a900460ff161515151581525050905080600001518160200151826040015183606001518460800151955095509550955095505091939590929450565b6000604051905090565b600080fd5b600080fd5b600073ffffffffffffffffffffffffffffffffffffffff82169050919050565b600061131e826112f3565b9050919050565b61132e81611313565b811461133957600080fd5b50565b60008135905061134b81611325565b92915050565b6000819050919050565b61136481611351565b811461136f57600080fd5b50565b6000813590506113818161135b565b92915050565b6000806040838503121561139e5761139d6112e9565b5b60006113ac8582860161133c565b92505060206113bd85828601611372565b9150509250929050565b6113d081611313565b82525050565b6113df81611351565b82525050565b60008115159050919050565b6113fa816113e5565b82525050565b600060808201905061141560008301876113c7565b61142260208301866113d6565b61142f60408301856113f1565b61143c60608301846113f1565b95945050505050565b600060208201905061145a60008301846113d6565b92915050565b600060208284031215611476576114756112e9565b5b600061148484828501611372565b91505092915050565b60006020820190506114a260008301846113c7565b92915050565b6114b1816113e5565b81146114bc57600080fd5b50565b6000813590506114ce816114a8565b92915050565b600080604083850312156114eb576114ea6112e9565b5b60006114f985828601611372565b925050602061150a858286016114bf565b9150509250929050565b60006020828403121561152a576115296112e9565b5b60006115388482850161133c565b91505092915050565b600081519050919050565b600082825260208201905092915050565b60005b8381101561157b578082015181840152602081019050611560565b60008484015250505050565b6000601f19601f8301169050919050565b60006115a382611541565b6115ad818561154c565b93506115bd81856020860161155d565b6115c681611587565b840191505092915050565b600060a08201905081810360008301526115eb8188611598565b905081810360208301526115ff8187611598565b905061160e60408301866113d6565b61161b60608301856113f1565b61162860808301846113f1565b9695505050505050565b60008060408385031215611649576116486112e9565b5b600061165785828601611372565b925050602061166885828601611372565b9150509250929050565b600080fd5b600080fd5b7f4e487b7100000000000000000000000000000000000000000000000000000000600052604160045260246000fd5b6116b482611587565b810181811067ffffffffffffffff821117156116d3576116d261167c565b5b80604052505050565b60006116e66112df565b90506116f282826116ab565b919050565b600067ffffffffffffffff8211156117125761171161167c565b5b61171b82611587565b9050602081019050919050565b82818337600083830152505050565b600061174a611745846116f7565b6116dc565b90508281526020810184848401111561176657611765611677565b5b611771848285611728565b509392505050565b600082601f83011261178e5761178d611672565b5b813561179e848260208601611737565b91505092915050565b6000806000606084860312156117c0576117bf6112e9565b5b600084013567ffffffffffffffff8111156117de576117dd6112ee565b5b6117ea86828701611779565b935050602084013567ffffffffffffffff81111561180b5761180a6112ee565b5b61181786828701611779565b925050604061182886828701611372565b9150509250925092565b7f496e76616c696420726571756573742049440000000000000000000000000000600082015250565b600061186860128361154c565b915061187382611832565b602082019050919050565b600060208201905081810360008301526118978161185b565b9050919050565b7f4e487b7100000000000000000000000000000000000000000000000000000000600052603260045260246000fd5b7f416c726561647920726573706f6e646564000000000000000000000000000000600082015250565b600061190360118361154c565b915061190e826118cd565b602082019050919050565b60006020820190508181036000830152611932816118f6565b9050919050565b600081905092915050565b7f726f6f6d2d000000000000000000000000000000000000000000000000000000600082015250565b600061197a600583611939565b915061198582611944565b600582019050919050565b6000819050919050565b6119ab6119a682611351565b611990565b82525050565b60006119bc8261196d565b91506119c8828461199a565b60208201915081905092915050565b60006040820190506119ec60008301856113d6565b81810360208301526119fe8184611598565b90509392505050565b7f4e487b7100000000000000000000000000000000000000000000000000000000600052602260045260246000fd5b60006002820490506001821680611a4e57607f821691505b602082108103611a6157611a60611a07565b5b50919050565b7f446576656c6f706572206e6f7420726567697374657265640000000000000000600082015250565b6000611a9d60188361154c565b9150611aa882611a67565b602082019050919050565b60006020820190508181036000830152611acc81611a90565b9050919050565b6000602082019050611ae860008301846113f1565b92915050565b7f446576656c6f706572206e6f7420617661696c61626c65000000000000000000600082015250565b6000611b2460178361154c565b9150611b2f82611aee565b602082019050919050565b60006020820190508181036000830152611b5381611b17565b9050919050565b7f5061796d656e7420726571756972656400000000000000000000000000000000600082015250565b6000611b9060108361154c565b9150611b9b82611b5a565b602082019050919050565b60006020820190508181036000830152611bbf81611b83565b9050919050565b6000604082019050611bdb60008301856113d6565b611be860208301846113d6565b9392505050565b7f496e646578206f7574206f6620626f756e647300000000000000000000000000600082015250565b6000611c2560138361154c565b9150611c3082611bef565b602082019050919050565b60006020820190508181036000830152611c5481611c18565b9050919050565b7f446576656c6f70657220616c7265616479207265676973746572656400000000600082015250565b6000611c91601c8361154c565b9150611c9c82611c5b565b602082019050919050565b60006020820190508181036000830152611cc081611c84565b9050919050565b7f4e616d652063616e6e6f7420626520656d707479000000000000000000000000600082015250565b6000611cfd60148361154c565b9150611d0882611cc7565b602082019050919050565b60006020820190508181036000830152611d2c81611cf0565b9050919050565b7f4578706572746973652063616e6e6f7420626520656d70747900000000000000600082015250565b6000611d6960198361154c565b9150611d7482611d33565b602082019050919050565b60006020820190508181036000830152611d9881611d5c565b9050919050565b7f486f75726c792072617465206d7573742062652067726561746572207468616e60008201527f2030000000000000000000000000000000000000000000000000000000000000602082015250565b6000611dfb60228361154c565b9150611e0682611d9f565b604082019050919050565b60006020820190508181036000830152611e2a81611dee565b9050919050565b60008190508160005260206000209050919050565b60006020601f8301049050919050565b600082821b905092915050565b600060088302611e937fffffffffffffffffffffffffffffffffffffffffffffffffffffffffffffffff82611e56565b611e9d8683611e56565b95508019841693508086168417925050509392505050565b6000819050919050565b6000611eda611ed5611ed084611351565b611eb5565b611351565b9050919050565b6000819050919050565b611ef483611ebf565b611f08611f0082611ee1565b848454611e63565b825550505050565b600090565b611f1d611f10565b611f28818484611eeb565b505050565b5b81811015611f4c57611f41600082611f15565b600181019050611f2e565b5050565b601f821115611f9157611f6281611e31565b611f6b84611e46565b81016020851015611f7a578190505b611f8e611f8685611e46565b830182611f2d565b50505b505050565b600082821c905092915050565b6000611fb460001984600802611f96565b1980831691505092915050565b6000611fcd8383611fa3565b9150826002028217905092915050565b611fe682611541565b67ffffffffffffffff811115611fff57611ffe61167c565b5b6120098254611a36565b612014828285611f50565b600060209050601f8311600181146120475760008415612035578287015190505b61203f8582611fc1565b8655506120a7565b601f19841661205586611e31565b60005b8281101561207d57848901518255600182019150602085019450602081019050612058565b8683101561209a5784890151612096601f891682611fa3565b8355505b6001600288020188555050505b505050505050565b600060608201905081810360008301526120c98186611598565b905081810360208301526120dd8185611598565b90506120ec60408301846113d6565b94935050505056fea264697066735822122067e12841ddaf91cfd082e4ec8a64934fb09aae6bdb4b34d4ca28e554f0dc0ddf64736f6c63430008130033",
  "linkReferences": {},
  "deployedLinkReferences": {}
}