{
  "_format": "hh-sol-artifact-1",
  "contractName": "DevConnect",
  "sourceName": "contracts/DevConnect.sol",
  "abi": [
    {
      "anonymous": false,
      "inputs": [
        {
          "indexed": true,
          "internalType": "address",
          "name": "developer",
          "type": "address"
        },
        {
          "indexed": false,
          "internalType": "bool",
          "name": "isAvailable",
          "type": "bool"
        }
      ],
      "name": "AvailabilityToggled",
      "type": "event"
    },
    {
      "anonymous": false,
      "inputs": [
        {
          "indexed": true,
          "internalType": "address",
          "name": "developer",
          "type": "address"
        },
        {
          "indexed": true,
          "internalType": "address",
          "name": "client",
          "type": "address"
        },
        {
          "indexed": false,
          "internalType": "uint256",
          "name": "amount",
          "type": "uint256"
        }
      ],
      "name": "CallBooked",
      "type": "event"
    },
    {
      "anonymous": false,
      "inputs": [
        {
          "indexed": false,
          "internalType": "uint256",
          "name": "callId",
          "type": "uint256"
        },
        {
          "indexed": false,
          "internalType": "uint256",
          "name": "duration",
          "type": "uint256"
        }
      ],
      "name": "CallCompleted",
      "type": "event"
    },
    {
      "anonymous": false,
      "inputs": [
        {
          "indexed": true,
          "internalType": "address",
          "name": "developer",
          "type": "address"
        },
        {
          "indexed": false,
          "internalType": "string",
          "name": "name",
          "type": "string"
        },
        {
          "indexed": false,
          "internalType": "string",
          "name": "expertise",
          "type": "string"
        },
        {
          "indexed": false,
          "internalType": "uint256",
          "name": "hourlyRate",
          "type": "uint256"
        }
      ],
      "name": "DeveloperRegistered",
      "type": "event"
    },
    {
      "inputs": [
        {
          "internalType": "address",
          "name": "_developer",
          "type": "address"
        }
      ],
      "name": "bookCall",
      "outputs": [],
      "stateMutability": "payable",
      "type": "function"
    },
    {
      "inputs": [
        {
          "internalType": "uint256",
          "name": "_callId",
          "type": "uint256"
        },
        {
          "internalType": "uint256",
          "name": "_duration",
          "type": "uint256"
        }
      ],
      "name": "completeCall",
      "outputs": [],
      "stateMutability": "nonpayable",
      "type": "function"
    },
    {
      "inputs": [
        {
          "internalType": "uint256",
          "name": "",
          "type": "uint256"
        }
      ],
      "name": "developerAddresses",
      "outputs": [
        {
          "internalType": "address",
          "name": "",
          "type": "address"
        }
      ],
      "stateMutability": "view",
      "type": "function"
    },
    {
      "inputs": [
        {
          "internalType": "address",
          "name": "",
          "type": "address"
        }
      ],
      "name": "developers",
      "outputs": [
        {
          "internalType": "string",
          "name": "name",
          "type": "string"
        },
        {
          "internalType": "string",
          "name": "expertise",
          "type": "string"
        },
        {
          "internalType": "uint256",
          "name": "hourlyRate",
          "type": "uint256"
        },
        {
          "internalType": "bool",
          "name": "isAvailable",
          "type": "bool"
        },
        {
          "internalType": "bool",
          "name": "isRegistered",
          "type": "bool"
        }
      ],
      "stateMutability": "view",
      "type": "function"
    },
    {
      "inputs": [
        {
          "internalType": "uint256",
          "name": "_index",
          "type": "uint256"
        }
      ],
      "name": "getDeveloperAddress",
      "outputs": [
        {
          "internalType": "address",
          "name": "",
          "type": "address"
        }
      ],
      "stateMutability": "view",
      "type": "function"
    },
    {
      "inputs": [],
      "name": "getDeveloperCount",
      "outputs": [
        {
          "internalType": "uint256",
          "name": "",
          "type": "uint256"
        }
      ],
      "stateMutability": "view",
      "type": "function"
    },
    {
      "inputs": [
        {
          "internalType": "address",
          "name": "_developer",
          "type": "address"
        }
      ],
      "name": "getDeveloperDetails",
      "outputs": [
        {
          "internalType": "string",
          "name": "name",
          "type": "string"
        },
        {
          "internalType": "string",
          "name": "expertise",
          "type": "string"
        },
        {
          "internalType": "uint256",
          "name": "hourlyRate",
          "type": "uint256"
        },
        {
          "internalType": "bool",
          "name": "isAvailable",
          "type": "bool"
        },
        {
          "internalType": "bool",
          "name": "isRegistered",
          "type": "bool"
        }
      ],
      "stateMutability": "view",
      "type": "function"
    },
    {
      "inputs": [
        {
          "internalType": "string",
          "name": "_name",
          "type": "string"
        },
        {
          "internalType": "string",
          "name": "_expertise",
          "type": "string"
        },
        {
          "internalType": "uint256",
          "name": "_hourlyRate",
          "type": "uint256"
        }
      ],
      "name": "registerDeveloper",
      "outputs": [],
      "stateMutability": "nonpayable",
      "type": "function"
    },
    {
      "inputs": [],
      "name": "toggleAvailability",
      "outputs": [],
      "stateMutability": "nonpayable",
      "type": "function"
    }
  ],
  "bytecode": "0x608060405234801561001057600080fd5b506118e2806100206000396000f3fe6080604052600436106100865760003560e01c80638cf1e602116100595780638cf1e6021461014b578063a6a576d814610167578063c0a560ef14610190578063cac92ed0146101cd578063f262d6d0146101f657610086565b806312c443f31461008b57806313997fc8146100b657806361fd5c20146100f357806370a2b84a14610134575b600080fd5b34801561009757600080fd5b506100a0610237565b6040516100ad9190610d47565b60405180910390f35b3480156100c257600080fd5b506100dd60048036038101906100d89190610da2565b610243565b6040516100ea9190610e10565b60405180910390f35b3480156100ff57600080fd5b5061011a60048036038101906101159190610e57565b610282565b60405161012b959493929190610f2f565b60405180910390f35b34801561014057600080fd5b506101496103e2565b005b61016560048036038101906101609190610e57565b6105ba565b005b34801561017357600080fd5b5061018e60048036038101906101899190610f90565b610783565b005b34801561019c57600080fd5b506101b760048036038101906101b29190610da2565b6107c0565b6040516101c49190610e10565b60405180910390f35b3480156101d957600080fd5b506101f460048036038101906101ef9190611105565b61084e565b005b34801561020257600080fd5b5061021d60048036038101906102189190610e57565b610b48565b60405161022e959493929190610f2f565b60405180910390f35b60008080549050905090565b6000818154811061025357600080fd5b906000526020600020016000915054906101000a900473ffffffffffffffffffffffffffffffffffffffff1681565b60016020528060005260406000206000915090508060000180546102a5906111bf565b80601f01602080910402602001604051908101604052809291908181526020018280546102d1906111bf565b801561031e5780601f106102f35761010080835404028352916020019161031e565b820191906000526020600020905b81548152906001019060200180831161030157829003601f168201915b505050505090806001018054610333906111bf565b80601f016020809104026020016040519081016040528092919081815260200182805461035f906111bf565b80156103ac5780601f10610381576101008083540402835291602001916103ac565b820191906000526020600020905b81548152906001019060200180831161038f57829003601f168201915b5050505050908060020154908060030160009054906101000a900460ff16908060030160019054906101000a900460ff16905085565b600160003373ffffffffffffffffffffffffffffffffffffffff1673ffffffffffffffffffffffffffffffffffffffff16815260200190815260200160002060030160019054906101000a900460ff16610471576040517f08c379a00000000000000000000000000000000000000000000000000000000081526004016104689061123c565b60405180910390fd5b600160003373ffffffffffffffffffffffffffffffffffffffff1673ffffffffffffffffffffffffffffffffffffffff16815260200190815260200160002060030160009054906101000a900460ff1615600160003373ffffffffffffffffffffffffffffffffffffffff1673ffffffffffffffffffffffffffffffffffffffff16815260200190815260200160002060030160006101000a81548160ff0219169083151502179055503373ffffffffffffffffffffffffffffffffffffffff167feaa8fc57c4c27316368c2e5c2ab5f4cbb7628c5a34c5eb0c44c2c3f0f551a758600160003373ffffffffffffffffffffffffffffffffffffffff1673ffffffffffffffffffffffffffffffffffffffff16815260200190815260200160002060030160009054906101000a900460ff166040516105b0919061125c565b60405180910390a2565b600160008273ffffffffffffffffffffffffffffffffffffffff1673ffffffffffffffffffffffffffffffffffffffff16815260200190815260200160002060030160019054906101000a900460ff16610649576040517f08c379a00000000000000000000000000000000000000000000000000000000081526004016106409061123c565b60405180910390fd5b600160008273ffffffffffffffffffffffffffffffffffffffff1673ffffffffffffffffffffffffffffffffffffffff16815260200190815260200160002060030160009054906101000a900460ff166106d8576040517f08c379a00000000000000000000000000000000000000000000000000000000081526004016106cf906112c3565b60405180910390fd5b6000341161071b576040517f08c379a00000000000000000000000000000000000000000000000000000000081526004016107129061132f565b60405180910390fd5b3373ffffffffffffffffffffffffffffffffffffffff168173ffffffffffffffffffffffffffffffffffffffff167f1590c9ce7355b2da0a6362613f082cb96fd92f7c0098dee62f2f02eeea73b711346040516107789190610d47565b60405180910390a350565b7f97eb56b68ae7085e423f94f76e8183181625053f0f665cedb3710d1da06e133382826040516107b492919061134f565b60405180910390a15050565b600080805490508210610808576040517f08c379a00000000000000000000000000000000000000000000000000000000081526004016107ff906113c4565b60405180910390fd5b6000828154811061081c5761081b6113e4565b5b9060005260206000200160009054906101000a900473ffffffffffffffffffffffffffffffffffffffff169050919050565b600160003373ffffffffffffffffffffffffffffffffffffffff1673ffffffffffffffffffffffffffffffffffffffff16815260200190815260200160002060030160019054906101000a900460ff16156108de576040517f08c379a00000000000000000000000000000000000000000000000000000000081526004016108d59061145f565b60405180910390fd5b6000835111610922576040517f08c379a0000000000000000000000000000000000000000000000000000000008152600401610919906114cb565b60405180910390fd5b6000825111610966576040517f08c379a000000000000000000000000000000000000000000000000000000000815260040161095d90611537565b60405180910390fd5b600081116109a9576040517f08c379a00000000000000000000000000000000000000000000000000000000081526004016109a0906115c9565b60405180910390fd5b6040518060a0016040528084815260200183815260200182815260200160011515815260200160011515815250600160003373ffffffffffffffffffffffffffffffffffffffff1673ffffffffffffffffffffffffffffffffffffffff1681526020019081526020016000206000820151816000019081610a2a9190611795565b506020820151816001019081610a409190611795565b506040820151816002015560608201518160030160006101000a81548160ff02191690831515021790555060808201518160030160016101000a81548160ff0219169083151502179055509050506000339080600181540180825580915050600190039060005260206000200160009091909190916101000a81548173ffffffffffffffffffffffffffffffffffffffff021916908373ffffffffffffffffffffffffffffffffffffffff1602179055503373ffffffffffffffffffffffffffffffffffffffff167f5c9ab8c200f3842d1b014caf1600de5cadcb9fb694fa541edf7e343f1038993c848484604051610b3b93929190611867565b60405180910390a2505050565b606080600080600080600160008873ffffffffffffffffffffffffffffffffffffffff1673ffffffffffffffffffffffffffffffffffffffff1681526020019081526020016000206040518060a0016040529081600082018054610bab906111bf565b80601f0160208091040260200160405190810160405280929190818152602001828054610bd7906111bf565b8015610c245780601f10610bf957610100808354040283529160200191610c24565b820191906000526020600020905b815481529060010190602001808311610c0757829003601f168201915b50505050508152602001600182018054610c3d906111bf565b80601f0160208091040260200160405190810160405280929190818152602001828054610c69906111bf565b8015610cb65780601f10610c8b57610100808354040283529160200191610cb6565b820191906000526020600020905b815481529060010190602001808311610c9957829003601f168201915b50505050508152602001600282015481526020016003820160009054906101000a900460ff161515151581526020016003820160019054906101000a900460ff161515151581525050905080600001518160200151826040015183606001518460800151955095509550955095505091939590929450565b6000819050919050565b610d4181610d2e565b82525050565b6000602082019050610d5c6000830184610d38565b92915050565b6000604051905090565b600080fd5b600080fd5b610d7f81610d2e565b8114610d8a57600080fd5b50565b600081359050610d9c81610d76565b92915050565b600060208284031215610db857610db7610d6c565b5b6000610dc684828501610d8d565b91505092915050565b600073ffffffffffffffffffffffffffffffffffffffff82169050919050565b6000610dfa82610dcf565b9050919050565b610e0a81610def565b82525050565b6000602082019050610e256000830184610e01565b92915050565b610e3481610def565b8114610e3f57600080fd5b50565b600081359050610e5181610e2b565b92915050565b600060208284031215610e6d57610e6c610d6c565b5b6000610e7b84828501610e42565b91505092915050565b600081519050919050565b600082825260208201905092915050565b60005b83811015610ebe578082015181840152602081019050610ea3565b60008484015250505050565b6000601f19601f8301169050919050565b6000610ee682610e84565b610ef08185610e8f565b9350610f00818560208601610ea0565b610f0981610eca565b840191505092915050565b60008115159050919050565b610f2981610f14565b82525050565b600060a0820190508181036000830152610f498188610edb565b90508181036020830152610f5d8187610edb565b9050610f6c6040830186610d38565b610f796060830185610f20565b610f866080830184610f20565b9695505050505050565b60008060408385031215610fa757610fa6610d6c565b5b6000610fb585828601610d8d565b9250506020610fc685828601610d8d565b9150509250929050565b600080fd5b600080fd5b7f4e487b7100000000000000000000000000000000000000000000000000000000600052604160045260246000fd5b61101282610eca565b810181811067ffffffffffffffff8211171561103157611030610fda565b5b80604052505050565b6000611044610d62565b90506110508282611009565b919050565b600067ffffffffffffffff8211156110705761106f610fda565b5b61107982610eca565b9050602081019050919050565b82818337600083830152505050565b60006110a86110a384611055565b61103a565b9050828152602081018484840111156110c4576110c3610fd5565b5b6110cf848285611086565b509392505050565b600082601f8301126110ec576110eb610fd0565b5b81356110fc848260208601611095565b91505092915050565b60008060006060848603121561111e5761111d610d6c565b5b600084013567ffffffffffffffff81111561113c5761113b610d71565b5b611148868287016110d7565b935050602084013567ffffffffffffffff81111561116957611168610d71565b5b611175868287016110d7565b925050604061118686828701610d8d565b9150509250925092565b7f4e487b7100000000000000000000000000000000000000000000000000000000600052602260045260246000fd5b600060028204905060018216806111d757607f821691505b6020821081036111ea576111e9611190565b5b50919050565b7f446576656c6f706572206e6f7420726567697374657265640000000000000000600082015250565b6000611226601883610e8f565b9150611231826111f0565b602082019050919050565b6000602082019050818103600083015261125581611219565b9050919050565b60006020820190506112716000830184610f20565b92915050565b7f446576656c6f706572206e6f7420617661696c61626c65000000000000000000600082015250565b60006112ad601783610e8f565b91506112b882611277565b602082019050919050565b600060208201905081810360008301526112dc816112a0565b9050919050565b7f5061796d656e7420726571756972656400000000000000000000000000000000600082015250565b6000611319601083610e8f565b9150611324826112e3565b602082019050919050565b600060208201905081810360008301526113488161130c565b9050919050565b60006040820190506113646000830185610d38565b6113716020830184610d38565b9392505050565b7f496e646578206f7574206f6620626f756e647300000000000000000000000000600082015250565b60006113ae601383610e8f565b91506113b982611378565b602082019050919050565b600060208201905081810360008301526113dd816113a1565b9050919050565b7f4e487b7100000000000000000000000000000000000000000000000000000000600052603260045260246000fd5b7f446576656c6f70657220616c7265616479207265676973746572656400000000600082015250565b6000611449601c83610e8f565b915061145482611413565b602082019050919050565b600060208201905081810360008301526114788161143c565b9050919050565b7f4e616d652063616e6e6f7420626520656d707479000000000000000000000000600082015250565b60006114b5601483610e8f565b91506114c08261147f565b602082019050919050565b600060208201905081810360008301526114e4816114a8565b9050919050565b7f4578706572746973652063616e6e6f7420626520656d70747900000000000000600082015250565b6000611521601983610e8f565b915061152c826114eb565b602082019050919050565b6000602082019050818103600083015261155081611514565b9050919050565b7f486f75726c792072617465206d7573742062652067726561746572207468616e60008201527f2030000000000000000000000000000000000000000000000000000000000000602082015250565b60006115b3602283610e8f565b91506115be82611557565b604082019050919050565b600060208201905081810360008301526115e2816115a6565b9050919050565b60008190508160005260206000209050919050565b60006020601f8301049050919050565b600082821b905092915050565b60006008830261164b7fffffffffffffffffffffffffffffffffffffffffffffffffffffffffffffffff8261160e565b611655868361160e565b95508019841693508086168417925050509392505050565b6000819050919050565b600061169261168d61168884610d2e565b61166d565b610d2e565b9050919050565b6000819050919050565b6116ac83611677565b6116c06116b882611699565b84845461161b565b825550505050565b600090565b6116d56116c8565b6116e08184846116a3565b505050565b5b81811015611704576116f96000826116cd565b6001810190506116e6565b5050565b601f8211156117495761171a816115e9565b611723846115fe565b81016020851015611732578190505b61174661173e856115fe565b8301826116e5565b50505b505050565b600082821c905092915050565b600061176c6000198460080261174e565b1980831691505092915050565b6000611785838361175b565b9150826002028217905092915050565b61179e82610e84565b67ffffffffffffffff8111156117b7576117b6610fda565b5b6117c182546111bf565b6117cc828285611708565b600060209050601f8311600181146117ff57600084156117ed578287015190505b6117f78582611779565b86555061185f565b601f19841661180d866115e9565b60005b8281101561183557848901518255600182019150602085019450602081019050611810565b86831015611852578489015161184e601f89168261175b565b8355505b6001600288020188555050505b505050505050565b600060608201905081810360008301526118818186610edb565b905081810360208301526118958185610edb565b90506118a46040830184610d38565b94935050505056fea264697066735822122005468c5949ad73e7e0f4d2061d5d79e177ee6a3c203b1c2ad19a9a78fa7e104664736f6c63430008130033",
  "linkReferences": {},
  "deployedLinkReferences": {}
}